{
  "contractName": "RequestableSimpleToken",
  "abi": [
    {
      "constant": true,
      "inputs": [],
      "name": "totalSupply",
      "outputs": [
        {
          "name": "",
          "type": "uint256"
        }
      ],
      "payable": false,
      "stateMutability": "view",
      "type": "function"
    },
    {
      "constant": true,
      "inputs": [
        {
          "name": "",
          "type": "address"
        }
      ],
      "name": "balances",
      "outputs": [
        {
          "name": "",
          "type": "uint256"
        }
      ],
      "payable": false,
      "stateMutability": "view",
      "type": "function"
    },
    {
      "constant": false,
      "inputs": [],
      "name": "renounceOwnership",
      "outputs": [],
      "payable": false,
      "stateMutability": "nonpayable",
      "type": "function"
    },
    {
      "constant": true,
      "inputs": [],
      "name": "owner",
      "outputs": [
        {
          "name": "",
          "type": "address"
        }
      ],
      "payable": false,
      "stateMutability": "view",
      "type": "function"
    },
    {
      "constant": false,
      "inputs": [
        {
          "name": "_newOwner",
          "type": "address"
        }
      ],
      "name": "transferOwnership",
      "outputs": [],
      "payable": false,
      "stateMutability": "nonpayable",
      "type": "function"
    },
    {
      "anonymous": false,
      "inputs": [
        {
          "indexed": false,
          "name": "_from",
          "type": "address"
        },
        {
          "indexed": false,
          "name": "_to",
          "type": "address"
        },
        {
          "indexed": false,
          "name": "_value",
          "type": "uint256"
        }
      ],
      "name": "Transfer",
      "type": "event"
    },
    {
      "anonymous": false,
      "inputs": [
        {
          "indexed": false,
          "name": "_to",
          "type": "address"
        },
        {
          "indexed": false,
          "name": "_value",
          "type": "uint256"
        }
      ],
      "name": "Mint",
      "type": "event"
    },
    {
      "anonymous": false,
      "inputs": [
        {
          "indexed": false,
          "name": "_isExit",
          "type": "bool"
        },
        {
          "indexed": false,
          "name": "_requestor",
          "type": "address"
        },
        {
          "indexed": false,
          "name": "_trieKey",
          "type": "bytes32"
        },
        {
          "indexed": false,
          "name": "_trieValue",
          "type": "bytes"
        }
      ],
      "name": "Request",
      "type": "event"
    },
    {
      "anonymous": false,
      "inputs": [
        {
          "indexed": true,
          "name": "previousOwner",
          "type": "address"
        }
      ],
      "name": "OwnershipRenounced",
      "type": "event"
    },
    {
      "anonymous": false,
      "inputs": [
        {
          "indexed": true,
          "name": "previousOwner",
          "type": "address"
        },
        {
          "indexed": true,
          "name": "newOwner",
          "type": "address"
        }
      ],
      "name": "OwnershipTransferred",
      "type": "event"
    },
    {
      "constant": false,
      "inputs": [
        {
          "name": "_to",
          "type": "address"
        },
        {
          "name": "_value",
          "type": "uint256"
        }
      ],
      "name": "transfer",
      "outputs": [],
      "payable": false,
      "stateMutability": "nonpayable",
      "type": "function"
    },
    {
      "constant": false,
      "inputs": [
        {
          "name": "_to",
          "type": "address"
        },
        {
          "name": "_value",
          "type": "uint256"
        }
      ],
      "name": "mint",
      "outputs": [],
      "payable": false,
      "stateMutability": "nonpayable",
      "type": "function"
    },
    {
      "constant": true,
      "inputs": [
        {
          "name": "who",
          "type": "address"
        }
      ],
      "name": "getBalanceTrieKey",
      "outputs": [
        {
          "name": "",
          "type": "bytes32"
        }
      ],
      "payable": false,
      "stateMutability": "pure",
      "type": "function"
    },
    {
      "constant": false,
      "inputs": [
        {
          "name": "isExit",
          "type": "bool"
        },
        {
          "name": "requestId",
          "type": "uint256"
        },
        {
          "name": "requestor",
          "type": "address"
        },
        {
          "name": "trieKey",
          "type": "bytes32"
        },
        {
          "name": "trieValue",
          "type": "bytes"
        }
      ],
      "name": "applyRequestInRootChain",
      "outputs": [
        {
          "name": "success",
          "type": "bool"
        }
      ],
      "payable": false,
      "stateMutability": "nonpayable",
      "type": "function"
    },
    {
      "constant": true,
      "inputs": [
        {
          "name": "trieValue",
          "type": "bytes"
        }
      ],
      "name": "decodeTrieValue",
      "outputs": [
        {
          "name": "v",
          "type": "uint256"
        }
      ],
      "payable": false,
      "stateMutability": "pure",
      "type": "function"
    },
    {
      "constant": false,
      "inputs": [
        {
          "name": "isExit",
          "type": "bool"
        },
        {
          "name": "requestId",
          "type": "uint256"
        },
        {
          "name": "requestor",
          "type": "address"
        },
        {
          "name": "trieKey",
          "type": "bytes32"
        },
        {
          "name": "trieValue",
          "type": "bytes"
        }
      ],
      "name": "applyRequestInChildChain",
      "outputs": [
        {
          "name": "success",
          "type": "bool"
        }
      ],
      "payable": false,
      "stateMutability": "nonpayable",
      "type": "function"
    }
  ],
  "bytecode": "0x608060405260008054600160a060020a031916331790556109d6806100256000396000f3006080604052600436106100ae5763ffffffff7c0100000000000000000000000000000000000000000000000000000000600035041663141ecf4681146100b357806318160ddd1461010257806327e235e31461012957806340c10f191461014a578063715018a6146101705780638da5cb5b14610185578063a9059cbb146101b6578063a9f79308146101da578063b18fcfdf14610215578063b9e59d0914610236578063f2fde38b1461028f575b600080fd5b3480156100bf57600080fd5b506100ee600480351515906024803591600160a060020a036044351691606435916084359182019101356102b0565b604080519115158252519081900360200190f35b34801561010e57600080fd5b50610117610550565b60408051918252519081900360200190f35b34801561013557600080fd5b50610117600160a060020a0360043516610556565b34801561015657600080fd5b5061016e600160a060020a0360043516602435610568565b005b34801561017c57600080fd5b5061016e610663565b34801561019157600080fd5b5061019a6106cf565b60408051600160a060020a039092168252519081900360200190f35b3480156101c257600080fd5b5061016e600160a060020a03600435166024356106de565b3480156101e657600080fd5b506100ee600480351515906024803591600160a060020a03604435169160643591608435918201910135610791565b34801561022157600080fd5b50610117600160a060020a036004351661089c565b34801561024257600080fd5b506040805160206004803580820135601f81018490048402850184019095528484526101179436949293602493928401919081908401838280828437509497506108c19650505050505050565b34801561029b57600080fd5b5061016e600160a060020a03600435166108da565b60008581526003602052604081205460ff16156102cc57600080fd5b86156103eb578315156102f857600054600160a060020a038681169116146102f357600080fd5b6103e6565b600184141561030657600080fd5b60408051600160a060020a03871681526002602082015281519081900390910190208414156100ae5761036883838080601f016020809104026020016040519081016040528093929190818152602001838380828437506108c1945050505050565b600160a060020a038616600090815260026020526040902054101561038c57600080fd5b6103c583838080601f016020809104026020016040519081016040528093929190818152602001838380828437506108c1945050505050565b600160a060020a038616600090815260026020526040902080549190910390555b6104af565b83151561041f576000805473ffffffffffffffffffffffffffffffffffffffff1916600160a060020a0387161790556104af565b600184141561042d576104af565b60408051600160a060020a03871681526002602082015281519081900390910190208414156100ae5761048f83838080601f016020809104026020016040519081016040528093929190818152602001838380828437506108c1945050505050565b600160a060020a0386166000908152600260205260409020805490910190555b600086815260036020908152604091829020805460ff1916600117905581518915158152600160a060020a038816918101919091529081018590526080606082018181529082018490527faf049e1d32035f6a4403975248f256e6bc3ac4f5417198f75d25dc5e6522666b918991889188918891889160a0820184848082843760405192018290039850909650505050505050a15060019695505050505050565b60015481565b60026020526000908152604090205481565b600054600160a060020a0316331461057f57600080fd5b600154610592908263ffffffff6108fd16565b600155600160a060020a0382166000908152600260205260409020546105be908263ffffffff6108fd16565b600160a060020a03831660008181526002602090815260409182902093909355805191825291810183905281517f0f6798a560793a54c3bcfe86a93cde1e73087d944c0ea20544137d4121396885929181900390910190a16040805160008152600160a060020a038416602082015280820183905290517fddf252ad1be2c89b69c2b068fc378daa952ba7f163c4a11628f55a4df523b3ef9181900360600190a15050565b600054600160a060020a0316331461067a57600080fd5b60008054604051600160a060020a03909116917ff8df31144d9c2f0f6b59d69b8b98abd5459d07f2742c4df920b25aae33c6482091a26000805473ffffffffffffffffffffffffffffffffffffffff19169055565b600054600160a060020a031681565b336000908152600260205260409020546106fe908263ffffffff61091616565b3360009081526002602052604080822092909255600160a060020a03841681522054610730908263ffffffff6108fd16565b600160a060020a03831660008181526002602090815260409182902093909355805133815292830191909152818101839052517fddf252ad1be2c89b69c2b068fc378daa952ba7f163c4a11628f55a4df523b3ef9181900360600190a15050565b60008581526003602052604081205460ff16156107ad57600080fd5b861561087b578315156107e7576000805473ffffffffffffffffffffffffffffffffffffffff1916600160a060020a0387161790556103e6565b60018414156107f5576103e6565b60408051600160a060020a03871681526002602082015281519081900390910190208414156103e65761085783838080601f016020809104026020016040519081016040528093929190818152602001838380828437506108c1945050505050565b600160a060020a0386166000908152600260205260409020805490910190556103e6565b8315156102f857600054600160a060020a038681169116146103e657600080fd5b60408051600160a060020a039290921682526002602083015280519182900301902090565b80516000906020146108d257600080fd5b506020015190565b600054600160a060020a031633146108f157600080fd5b6108fa8161092d565b50565b60008282018381101561090f57600080fd5b9392505050565b6000808383111561092657600080fd5b5050900390565b600160a060020a038116151561094257600080fd5b60008054604051600160a060020a03808516939216917f8be0079c531659141344cd1fd0a4f28419497f9722a3daafe3b4186f6b6457e091a36000805473ffffffffffffffffffffffffffffffffffffffff1916600160a060020a03929092169190911790555600a165627a7a72305820a6ceda1001fa4d27011abdbbdade2f1c669498d9f9016c392555dbe1609544b80029",
  "source": "pragma solidity ^0.4.24;\n\nimport \"./lib/SafeMath.sol\";\nimport \"./lib/Ownable.sol\";\nimport \"./RequestableI.sol\";\n\n\ncontract RequestableSimpleToken is Ownable, RequestableI {\n  using SafeMath for *;\n\n  // `owner` is stored at bytes32(0).\n  // address owner; from Ownable\n\n  // `totalSupply` is stored at bytes32(1).\n  uint public totalSupply;\n\n  // `balances[addr]` is stored at keccak256(bytes32(addr), bytes32(2)).\n  mapping(address => uint) public balances;\n\n  // requests\n  mapping(uint => bool) appliedRequests;\n\n  /* Events */\n  event Transfer(address _from, address _to, uint _value);\n  event Mint(address _to, uint _value);\n  event Request(bool _isExit, address _requestor, bytes32 _trieKey, bytes _trieValue);\n\n  function transfer(address _to, uint _value) public {\n    balances[msg.sender] = balances[msg.sender].sub(_value);\n    balances[_to] = balances[_to].add(_value);\n\n    emit Transfer(msg.sender, _to, _value);\n  }\n\n  function mint(address _to, uint _value) public onlyOwner {\n    totalSupply = totalSupply.add(_value);\n    balances[_to] = balances[_to].add(_value);\n\n    emit Mint(_to, _value);\n    emit Transfer(0x00, _to, _value);\n  }\n\n  // User can get the trie key of one's balance and make an enter request directly.\n  function getBalanceTrieKey(address who) public pure returns (bytes32) {\n    return keccak256(bytes32(who), bytes32(2));\n  }\n\n  function applyRequestInRootChain(\n    bool isExit,\n    uint256 requestId,\n    address requestor,\n    bytes32 trieKey,\n    bytes trieValue\n  ) external returns (bool success) {\n    // TODO: adpot RootChain\n    // require(msg.sender == address(rootchain));\n    // require(!getRequestApplied(requestId)); // check double applying\n\n    require(!appliedRequests[requestId]);\n\n    if (isExit) {\n      // exit must be finalized.\n      // TODO: adpot RootChain\n      // require(rootchain.getExitFinalized(requestId));\n\n      if (bytes32(0) == trieKey) {\n        // only owner (in child chain) can exit `owner` variable.\n        // but it is checked in applyRequestInChildChain and exitChallenge.\n\n        // set requestor as owner in root chain.\n        owner = requestor;\n      } else if (bytes32(1) == trieKey) {\n        // no one can exit `totalSupply` variable.\n        // but do nothing to return true.\n      } else if (keccak256(bytes32(requestor), bytes32(2)) == trieKey) {\n        // this checks trie key equals to `balances[requestor]`.\n        // only token holder can exit one's token.\n        // exiting means moving tokens from child chain to root chain.\n        balances[requestor] += decodeTrieValue(trieValue);\n      } else {\n        // cannot exit other variables.\n        // but do nothing to return true.\n      }\n    } else {\n      // apply enter\n      if (bytes32(0) == trieKey) {\n        // only owner (in root chain) can enter `owner` variable.\n        require(owner == requestor);\n        // do nothing in root chain\n      } else if (bytes32(1) == trieKey) {\n        // no one can enter `totalSupply` variable.\n        revert();\n      } else if (keccak256(bytes32(requestor), bytes32(2)) == trieKey) {\n        // this checks trie key equals to `balances[requestor]`.\n        // only token holder can enter one's token.\n        // entering means moving tokens from root chain to child chain.\n        require(balances[requestor] >= decodeTrieValue(trieValue));\n        balances[requestor] -= decodeTrieValue(trieValue);\n      } else {\n        // cannot apply request on other variables.\n        revert();\n      }\n    }\n\n    appliedRequests[requestId] = true;\n\n    emit Request(isExit, requestor, trieKey, trieValue);\n\n    // TODO: adpot RootChain\n    // setRequestApplied(requestId);\n    return true;\n  }\n\n\n  function decodeTrieValue(bytes memory trieValue) public pure returns (uint v) {\n    require(trieValue.length == 0x20);\n\n    assembly {\n       v := mload(add(trieValue, 0x20))\n    }\n  }\n\n  // this is only called by NULL_ADDRESS in child chain\n  // when i) exitRequest is initialized by startExit() or\n  //     ii) enterRequest is initialized\n  function applyRequestInChildChain(\n    bool isExit,\n    uint256 requestId,\n    address requestor,\n    bytes32 trieKey,\n    bytes trieValue\n  ) external returns (bool success) {\n    // TODO: adpot child chain\n    // require(msg.sender == NULL_ADDRESS);\n    require(!appliedRequests[requestId]);\n\n    if (isExit) {\n      if (bytes32(0) == trieKey) {\n        // only owner (in child chain) can exit `owner` variable.\n        require(requestor == owner);\n\n        // do nothing when exit `owner` in child chain\n      } else if (bytes32(1) == trieKey) {\n        // no one can exit `totalSupply` variable.\n        revert();\n      } else if (keccak256(bytes32(requestor), bytes32(2)) == trieKey) {\n        // this checks trie key equals to `balances[tokenHolder]`.\n        // only token holder can exit one's token.\n        // exiting means moving tokens from child chain to root chain.\n\n        // revert provides a proof for `exitChallenge`.\n        require(balances[requestor] >= decodeTrieValue(trieValue));\n\n        balances[requestor] -= decodeTrieValue(trieValue);\n      } else { // cannot exit other variables.\n        revert();\n      }\n    } else { // apply enter\n      if (bytes32(0) == trieKey) {\n        // only owner (in root chain) can make enterRequest of `owner` variable.\n        // but it is checked in applyRequestInRootChain.\n\n        owner = requestor;\n      } else if (bytes32(1) == trieKey) {\n        // no one can enter `totalSupply` variable.\n      } else if (keccak256(bytes32(requestor), bytes32(2)) == trieKey) {\n        // this checks trie key equals to `balances[tokenHolder]`.\n        // only token holder can enter one's token.\n        // entering means moving tokens from root chain to child chain.\n        balances[requestor] += decodeTrieValue(trieValue);\n      } else {\n        // cannot apply request on other variables.\n        revert();\n      }\n    }\n\n    appliedRequests[requestId] = true;\n\n    emit Request(isExit, requestor, trieKey, trieValue);\n    return true;\n  }\n\n\n}\n",
  "sourcePath": "/Users/songjake/workspace/plasma-evm-contracts/contracts/RequestableSimpleToken.sol",
  "compiler": {
    "name": "solc",
    "version": "0.4.24+commit.e67f0147.Emscripten.clang"
  },
  "schemaVersion": "2.0.1",
  "updatedAt": "2019-05-02T06:26:23.910Z"
}